{
    "contractName": "MyToken",
    "abi": [
        {
            "inputs": [
                {
                    "internalType": "address",
                    "name": "_taxCollector",
                    "type": "address"
                }
            ],
            "stateMutability": "nonpayable",
            "type": "constructor"
        },
        {
            "inputs": [
                {
                    "internalType": "address",
                    "name": "spender",
                    "type": "address"
                },
                {
                    "internalType": "uint256",
                    "name": "allowance",
                    "type": "uint256"
                },
                {
                    "internalType": "uint256",
                    "name": "needed",
                    "type": "uint256"
                }
            ],
            "name": "ERC20InsufficientAllowance",
            "type": "error"
        },
        {
            "inputs": [
                {
                    "internalType": "address",
                    "name": "sender",
                    "type": "address"
                },
                {
                    "internalType": "uint256",
                    "name": "balance",
                    "type": "uint256"
                },
                {
                    "internalType": "uint256",
                    "name": "needed",
                    "type": "uint256"
                }
            ],
            "name": "ERC20InsufficientBalance",
            "type": "error"
        },
        {
            "inputs": [
                {
                    "internalType": "address",
                    "name": "approver",
                    "type": "address"
                }
            ],
            "name": "ERC20InvalidApprover",
            "type": "error"
        },
        {
            "inputs": [
                {
                    "internalType": "address",
                    "name": "receiver",
                    "type": "address"
                }
            ],
            "name": "ERC20InvalidReceiver",
            "type": "error"
        },
        {
            "inputs": [
                {
                    "internalType": "address",
                    "name": "sender",
                    "type": "address"
                }
            ],
            "name": "ERC20InvalidSender",
            "type": "error"
        },
        {
            "inputs": [
                {
                    "internalType": "address",
                    "name": "spender",
                    "type": "address"
                }
            ],
            "name": "ERC20InvalidSpender",
            "type": "error"
        },
        {
            "inputs": [
                {
                    "internalType": "address",
                    "name": "owner",
                    "type": "address"
                }
            ],
            "name": "OwnableInvalidOwner",
            "type": "error"
        },
        {
            "inputs": [
                {
                    "internalType": "address",
                    "name": "account",
                    "type": "address"
                }
            ],
            "name": "OwnableUnauthorizedAccount",
            "type": "error"
        },
        {
            "anonymous": false,
            "inputs": [
                {
                    "indexed": true,
                    "internalType": "address",
                    "name": "owner",
                    "type": "address"
                },
                {
                    "indexed": true,
                    "internalType": "address",
                    "name": "spender",
                    "type": "address"
                },
                {
                    "indexed": false,
                    "internalType": "uint256",
                    "name": "value",
                    "type": "uint256"
                }
            ],
            "name": "Approval",
            "type": "event"
        },
        {
            "anonymous": false,
            "inputs": [
                {
                    "indexed": true,
                    "internalType": "address",
                    "name": "previousOwner",
                    "type": "address"
                },
                {
                    "indexed": true,
                    "internalType": "address",
                    "name": "newOwner",
                    "type": "address"
                }
            ],
            "name": "OwnershipTransferred",
            "type": "event"
        },
        {
            "anonymous": false,
            "inputs": [
                {
                    "indexed": true,
                    "internalType": "address",
                    "name": "from",
                    "type": "address"
                },
                {
                    "indexed": true,
                    "internalType": "address",
                    "name": "to",
                    "type": "address"
                },
                {
                    "indexed": false,
                    "internalType": "uint256",
                    "name": "value",
                    "type": "uint256"
                }
            ],
            "name": "Transfer",
            "type": "event"
        },
        {
            "inputs": [
                {
                    "internalType": "address",
                    "name": "owner",
                    "type": "address"
                },
                {
                    "internalType": "address",
                    "name": "spender",
                    "type": "address"
                }
            ],
            "name": "allowance",
            "outputs": [
                {
                    "internalType": "uint256",
                    "name": "",
                    "type": "uint256"
                }
            ],
            "stateMutability": "view",
            "type": "function"
        },
        {
            "inputs": [
                {
                    "internalType": "address",
                    "name": "spender",
                    "type": "address"
                },
                {
                    "internalType": "uint256",
                    "name": "value",
                    "type": "uint256"
                }
            ],
            "name": "approve",
            "outputs": [
                {
                    "internalType": "bool",
                    "name": "",
                    "type": "bool"
                }
            ],
            "stateMutability": "nonpayable",
            "type": "function"
        },
        {
            "inputs": [
                {
                    "internalType": "address",
                    "name": "account",
                    "type": "address"
                }
            ],
            "name": "balanceOf",
            "outputs": [
                {
                    "internalType": "uint256",
                    "name": "",
                    "type": "uint256"
                }
            ],
            "stateMutability": "view",
            "type": "function"
        },
        {
            "inputs": [
                {
                    "internalType": "address[]",
                    "name": "recipients",
                    "type": "address[]"
                },
                {
                    "internalType": "uint256[]",
                    "name": "amounts",
                    "type": "uint256[]"
                }
            ],
            "name": "batchTransfer",
            "outputs": [],
            "stateMutability": "nonpayable",
            "type": "function"
        },
        {
            "inputs": [
                {
                    "internalType": "uint256",
                    "name": "amount",
                    "type": "uint256"
                }
            ],
            "name": "burn",
            "outputs": [],
            "stateMutability": "nonpayable",
            "type": "function"
        },
        {
            "inputs": [],
            "name": "decimals",
            "outputs": [
                {
                    "internalType": "uint8",
                    "name": "",
                    "type": "uint8"
                }
            ],
            "stateMutability": "view",
            "type": "function"
        },
        {
            "inputs": [
                {
                    "internalType": "address",
                    "name": "account",
                    "type": "address"
                },
                {
                    "internalType": "bool",
                    "name": "excluded",
                    "type": "bool"
                }
            ],
            "name": "excludeFromFee",
            "outputs": [],
            "stateMutability": "nonpayable",
            "type": "function"
        },
        {
            "inputs": [
                {
                    "internalType": "address",
                    "name": "to",
                    "type": "address"
                },
                {
                    "internalType": "uint256",
                    "name": "amount",
                    "type": "uint256"
                }
            ],
            "name": "mint",
            "outputs": [],
            "stateMutability": "nonpayable",
            "type": "function"
        },
        {
            "inputs": [],
            "name": "name",
            "outputs": [
                {
                    "internalType": "string",
                    "name": "",
                    "type": "string"
                }
            ],
            "stateMutability": "view",
            "type": "function"
        },
        {
            "inputs": [],
            "name": "owner",
            "outputs": [
                {
                    "internalType": "address",
                    "name": "",
                    "type": "address"
                }
            ],
            "stateMutability": "view",
            "type": "function"
        },
        {
            "inputs": [],
            "name": "renounceOwnership",
            "outputs": [],
            "stateMutability": "nonpayable",
            "type": "function"
        },
        {
            "inputs": [
                {
                    "internalType": "uint256",
                    "name": "_taxRate",
                    "type": "uint256"
                }
            ],
            "name": "setTaxRate",
            "outputs": [],
            "stateMutability": "nonpayable",
            "type": "function"
        },
        {
            "inputs": [],
            "name": "symbol",
            "outputs": [
                {
                    "internalType": "string",
                    "name": "",
                    "type": "string"
                }
            ],
            "stateMutability": "view",
            "type": "function"
        },
        {
            "inputs": [],
            "name": "taxCollector",
            "outputs": [
                {
                    "internalType": "address",
                    "name": "",
                    "type": "address"
                }
            ],
            "stateMutability": "view",
            "type": "function"
        },
        {
            "inputs": [],
            "name": "taxRate",
            "outputs": [
                {
                    "internalType": "uint256",
                    "name": "",
                    "type": "uint256"
                }
            ],
            "stateMutability": "view",
            "type": "function"
        },
        {
            "inputs": [],
            "name": "totalSupply",
            "outputs": [
                {
                    "internalType": "uint256",
                    "name": "",
                    "type": "uint256"
                }
            ],
            "stateMutability": "view",
            "type": "function"
        },
        {
            "inputs": [
                {
                    "internalType": "address",
                    "name": "recipient",
                    "type": "address"
                },
                {
                    "internalType": "uint256",
                    "name": "amount",
                    "type": "uint256"
                }
            ],
            "name": "transfer",
            "outputs": [
                {
                    "internalType": "bool",
                    "name": "",
                    "type": "bool"
                }
            ],
            "stateMutability": "nonpayable",
            "type": "function"
        },
        {
            "inputs": [
                {
                    "internalType": "address",
                    "name": "sender",
                    "type": "address"
                },
                {
                    "internalType": "address",
                    "name": "recipient",
                    "type": "address"
                },
                {
                    "internalType": "uint256",
                    "name": "amount",
                    "type": "uint256"
                }
            ],
            "name": "transferFrom",
            "outputs": [
                {
                    "internalType": "bool",
                    "name": "",
                    "type": "bool"
                }
            ],
            "stateMutability": "nonpayable",
            "type": "function"
        },
        {
            "inputs": [
                {
                    "internalType": "address",
                    "name": "newOwner",
                    "type": "address"
                }
            ],
            "name": "transferOwnership",
            "outputs": [],
            "stateMutability": "nonpayable",
            "type": "function"
        }
    ],
    "bytecode": "6080346200041e57601f1990601f6200110c388190038281018516840193916001600160401b0391828611848710176200032d57808492604097885283396020938491810103126200041e57516001600160a01b038082169290918390036200041e576200006c62000422565b94600786526626bcaa37b5b2b760c91b858701526200008a62000422565b90600391828152624d544b60e81b8782015287518481116200032d5783546001998a82811c9216801562000413575b8a831014620003ff578185849311620003ac575b5089908583116001146200034d575f9262000341575b50505f1982861b1c191690891b1783555b80519384116200032d576004998a548981811c9116801562000322575b898210146200030f57908184879695949311620002b6575b50889285116001146200025257505f9362000246575b505082871b925f19911b1c19161786555b33156200023057600580546001600160a01b03198082163390811790935592167f8be0079c531659141344cd1fd0a4f28419497f9722a3daafe3b4186f6b6457e05f80a3600260065560025469d3c21bcecceda1000000908181018091116200021d57600895969750600255335f525f8452865f2081815401905586519081525f7fddf252ad1be2c89b69c2b068fc378daa952ba7f163c4a11628f55a4df523b3ef853393a36007541617600755335f5252815f209060ff1982541617905551610cc99081620004438239f35b601188634e487b7160e01b5f525260245ffd5b8451631e4fbdf760e01b81525f81880152602490fd5b015191505f806200013f565b89959392919316928b5f52885f20935f5b8a8282106200029f575050851162000285575b50505050811b01865562000150565b01519060f8845f19921b161c191690555f80808062000276565b8385015187558c9890960195938401930162000263565b9091929394508b5f52885f208480880160051c8201928b891062000305575b918c91899897969594930160051c01915b828110620002f657505062000129565b5f81558897508c9101620002e6565b92508192620002d5565b60228c634e487b7160e01b5f525260245ffd5b90607f169062000111565b634e487b7160e01b5f52604160045260245ffd5b015190505f80620000e3565b908d8c941691875f528b5f20925f5b8d8282106200039557505084116200037d575b505050811b018355620000f4565b01515f1983881b60f8161c191690555f80806200036f565b8385015186558f979095019493840193016200035c565b909150855f52895f208580850160051c8201928c8610620003f5575b918d91869594930160051c01915b828110620003e6575050620000cd565b5f81558594508d9101620003d6565b92508192620003c8565b634e487b7160e01b5f52602260045260245ffd5b91607f1691620000b9565b5f80fd5b60408051919082016001600160401b038111838210176200032d5760405256fe60806040818152600480361015610014575f80fd5b5f92833560e01c90816306fdde031461089557508063095ea7b31461086457806318160ddd1461084557806323b872dd14610774578063313ce5671461075857806340c10f19146106a957806342966c68146105fa57806370a08231146105c3578063715018a614610563578063771a3a1d1461054457806388d695b21461043b5780638da5cb5b1461041257806395d89b41146102f2578063a9059cbb146102bf578063bea1dcf814610296578063c6d69a3014610226578063dd62ed3e146101dd578063df8408fe146101835763f2fde38b146100f1575f80fd5b3461017f57602036600319011261017f5761010a6109d1565b90610113610b11565b6001600160a01b03918216928315610169575050600554826bffffffffffffffffffffffff60a01b821617600555167f8be0079c531659141344cd1fd0a4f28419497f9722a3daafe3b4186f6b6457e08380a380f35b51631e4fbdf760e01b8152908101849052602490fd5b8280fd5b5050346101d957806003193601126101d95761019d6109d1565b90602435918215158093036101d5576101b4610b11565b60018060a01b03168352600860205282209060ff8019835416911617905580f35b8380fd5b5080fd5b5050346101d957806003193601126101d957806020926101fb6109d1565b6102036109eb565b6001600160a01b0391821683526001865283832091168252845220549051908152f35b503461017f57602036600319011261017f57803591610243610b11565b600a831161025357505060065580f35b906020606492519162461bcd60e51b8352820152601a60248201527f54617820726174652063616e6e6f7420657863656564203130250000000000006044820152fd5b5050346101d957816003193601126101d95760075490516001600160a01b039091168152602090f35b5050346101d957806003193601126101d9576020906102e96102df6109d1565b6024359033610a53565b90519015158152f35b509190346101d957816003193601126101d957805190828454600181811c90808316928315610408575b60209384841081146103f5578388529081156103d95750600114610384575b505050829003601f01601f191682019267ffffffffffffffff841183851017610371575082918261036d92528261098a565b0390f35b634e487b7160e01b815260418552602490fd5b8787529192508591837f8a35acfbc15ff81a39ae7d344fd709f28e8600b4aa8c65c6b64bfe7fe36bd19b5b8385106103c557505050508301015f808061033b565b8054888601830152930192849082016103af565b60ff1916878501525050151560051b84010190505f808061033b565b634e487b7160e01b895260228a52602489fd5b91607f169161031c565b5050346101d957816003193601126101d95760055490516001600160a01b039091168152602090f35b50903461017f578060031936011261017f5767ffffffffffffffff9180358381116105405761046d9036908301610a01565b602493919394853590811161053c576104899036908501610a01565b9190928282036104fb5750865b8181106104a1578780f35b6104ac818388610aed565b356001600160a01b03811681036104f7576104d4906104cc838688610aed565b359033610a53565b505f1981146104e557600101610496565b634e487b7160e01b8852601185528688fd5b8880fd5b5162461bcd60e51b81526020818601526018818801527f4d69736d617463686564206172726179206c656e6774687300000000000000006044820152606490fd5b8680fd5b8480fd5b5050346101d957816003193601126101d9576020906006549051908152f35b83346105c057806003193601126105c05761057c610b11565b600580546001600160a01b0319811690915581906001600160a01b03167f8be0079c531659141344cd1fd0a4f28419497f9722a3daafe3b4186f6b6457e08280a380f35b80fd5b5050346101d95760203660031901126101d95760209181906001600160a01b036105eb6109d1565b16815280845220549051908152f35b508290346101d95760203660031901126101d9578035903315610692573383528260205283832054908282106106705750928183943385528460205203818420558160025403600255519081527fddf252ad1be2c89b69c2b068fc378daa952ba7f163c4a11628f55a4df523b3ef60203392a380f35b9250606493519263391434e360e21b8452339084015260248301526044820152fd5b8351634b637e8f60e11b8152908101839052602490fd5b50903461017f578060031936011261017f576106c36109d1565b90602435916106d0610b11565b6001600160a01b03169283156107435760025490838201809211610730575084927fddf252ad1be2c89b69c2b068fc378daa952ba7f163c4a11628f55a4df523b3ef9260209260025585855284835280852082815401905551908152a380f35b634e487b7160e01b865260119052602485fd5b84602492519163ec442f0560e01b8352820152fd5b5050346101d957816003193601126101d9576020905160128152f35b50903461017f57606036600319011261017f5761078f6109d1565b6107976109eb565b6044359160018060a01b0381168087526020956001875285882033895287528486892054106107f157506107e58486896107ec946102e9999a9b5260018b528181203382528b522054610a32565b3383610c06565b610a53565b855162461bcd60e51b8152908101879052602860248201527f45524332303a207472616e7366657220616d6f756e74206578636565647320616044820152676c6c6f77616e636560c01b6064820152608490fd5b5050346101d957816003193601126101d9576020906002549051908152f35b5050346101d957806003193601126101d95760209061088e6108846109d1565b6024359033610c06565b5160018152f35b849150833461017f578260031936011261017f5782600354600181811c90808316928315610980575b60209384841081146103f557838852908115610964575060011461090e57505050829003601f01601f191682019267ffffffffffffffff841183851017610371575082918261036d92528261098a565b600387529192508591837fc2575a0e9e593c00f959f8c92f12db2869c3395a3b0502d05e2516446f71f85b5b838510610950575050505083010185808061033b565b80548886018301529301928490820161093a565b60ff1916878501525050151560051b840101905085808061033b565b91607f16916108be565b602080825282518183018190529093925f5b8281106109bd57505060409293505f838284010152601f8019910116010190565b81810186015184820160400152850161099c565b600435906001600160a01b03821682036109e757565b5f80fd5b602435906001600160a01b03821682036109e757565b9181601f840112156109e75782359167ffffffffffffffff83116109e7576020808501948460051b0101116109e757565b91908203918211610a3f57565b634e487b7160e01b5f52601160045260245ffd5b6001600160a01b038082165f908152600860205260408120549095949392919060ff1615610ab257610a8a610a9895968095610a32565b9380610a9d575b5050610b3d565b600190565b610aab916007541683610b3d565b5f80610a91565b60065495868502968588041485151715610ad95750610a8a6064610a989697048095610a32565b634e487b7160e01b81526011600452602490fd5b9190811015610afd5760051b0190565b634e487b7160e01b5f52603260045260245ffd5b6005546001600160a01b03163303610b2557565b60405163118cdaa760e01b8152336004820152602490fd5b6001600160a01b03908116918215610bee5716918215610bd6575f828152806020526040812054828110610bb25791604082827fddf252ad1be2c89b69c2b068fc378daa952ba7f163c4a11628f55a4df523b3ef958760209652828652038282205586815220818154019055604051908152a3565b83836064926040519263391434e360e21b8452600484015260248301526044820152fd5b60405163ec442f0560e01b81525f6004820152602490fd5b604051634b637e8f60e11b81525f6004820152602490fd5b6001600160a01b03908116918215610c7b5716918215610c635760207f8c5be1e5ebec7d5bd14f71427d1e84f3dd0314c0f7b2291e5b200ac8c7c3b92591835f526001825260405f20855f5282528060405f2055604051908152a3565b604051634a1406b160e11b81525f6004820152602490fd5b60405163e602df0560e01b81525f6004820152602490fdfea2646970667358221220b882d1a8400bd896ec2aa8f9109eaba8b5358509a25610736d3dbec48a54aed864736f6c63430008140033",
    "sourcePath": "d:/Web3_project/project2/contracts/Token.sol",
    "compiler": {
        "name": "solc",
        "version": "0.8.20+commit.a1b79de6"
    },
    "functionHashes": {
        "allowance(address,address)": "dd62ed3e",
        "approve(address,uint256)": "095ea7b3",
        "balanceOf(address)": "70a08231",
        "batchTransfer(address[],uint256[])": "88d695b2",
        "burn(uint256)": "42966c68",
        "decimals()": "313ce567",
        "excludeFromFee(address,bool)": "df8408fe",
        "mint(address,uint256)": "40c10f19",
        "name()": "06fdde03",
        "owner()": "8da5cb5b",
        "renounceOwnership()": "715018a6",
        "setTaxRate(uint256)": "c6d69a30",
        "symbol()": "95d89b41",
        "taxCollector()": "bea1dcf8",
        "taxRate()": "771a3a1d",
        "totalSupply()": "18160ddd",
        "transfer(address,uint256)": "a9059cbb",
        "transferFrom(address,address,uint256)": "23b872dd",
        "transferOwnership(address)": "f2fde38b"
    },
    "gasEstimates": {
        "creation": {
            "codeDepositCost": "654600",
            "executionCost": "infinite",
            "totalCost": "infinite"
        },
        "external": {
            "allowance(address,address)": "2921",
            "approve(address,uint256)": "24379",
            "balanceOf(address)": "2581",
            "batchTransfer(address[],uint256[])": "infinite",
            "burn(uint256)": "50681",
            "decimals()": "258",
            "excludeFromFee(address,bool)": "27110",
            "mint(address,uint256)": "52860",
            "name()": "infinite",
            "owner()": "2539",
            "renounceOwnership()": "28256",
            "setTaxRate(uint256)": "24778",
            "symbol()": "infinite",
            "taxCollector()": "2605",
            "taxRate()": "2474",
            "totalSupply()": "2320",
            "transfer(address,uint256)": "infinite",
            "transferFrom(address,address,uint256)": "infinite",
            "transferOwnership(address)": "28566"
        },
        "internal": {
            "_transferWithTax(address,address,uint256)": "infinite"
        }
    }
}